:020000040800F2
:1000000060220020CD0A00089D09000851740008F4
:100010009F090008A3090008A709000800000000C4
:10002000000000000000000000000000AB09000814
:10003000E10A0008000000009F730008190300088F
:10004000E70A0008E70A0008E70A0008E70A0008CC
:10005000E70A0008E70A0008E70A0008E70A0008BC
:10006000E70A0008E70A0008E70A0008E70A0008AC
:10007000E70A0008E70A0008E70A0008E70A00089C
:10008000E70A0008E70A0008E70A0008E70A00088C
:10009000E70A0008E70A0008E70A0008E70A00087C
:1000A000E70A0008E70A0008E70A0008E70A00086C
:1000B000E70A0008E70A0008E70A0008E70A00085C
:1000C000E70A0008E70A0008E70A0008E70A00084C
:1000D000E70A00081B0500084D050008E70A0008AC
:1000E000E70A0008E70A0008E70A0008E70A00082C
:1000F000E70A0008E70A0008E70A0008E70A00081C
:10010000E70A0008E70A0008E70A0008E70A00080B
:10011000E70A0008E70A0008E70A0008E70A0008FB
:10012000E70A0008E70A0008E70A0008E70A0008EB
:10013000E70A0008E70A0008E70A0008E70A0008DB
:10014000E70A0008E70A0008E70A0008E70A0008CB
:10015000E70A0008E70A0008E70A00087F05000828
:10016000E70A0008E70A0008E70A0008E70A0008AB
:10017000E70A0008E70A0008E70A00080000000094
:10018000E70A0008E70A000800F002F800F065F846
:100190000AA090E8000C82448344AAF10107DA45E2
:1001A00001D100F05AF8AFF2090EBAE80F0013F0CF
:1001B000010F18BFFB1A43F00103184748E5000080
:1001C00068E500000A444FF0000C10F8013B13F002
:1001D000070408BF10F8014B1D1108BF10F8015BA0
:1001E000641E05D010F8016B641E01F8016BF9D193
:1001F00013F0080F1EBF10F8014BAD1C0C1B09D1EA
:100200006D1E58BF01F801CBFAD505E014F8016B5B
:1002100001F8016B6D1EF9D59142D6D370470000ED
:100220000023002400250026103A28BF78C1FBD8FF
:10023000520728BF30C148BF0B6070471FB50DF093
:1002400081FA0DF045FA0400002000210DF064FA57
:10025000401C60601FBD10B510BD0DF014FA1146B2
:10026000FFF7ECFF03F0EDF80DF044FA03B4FFF7ED
:10027000F2FF03BC0DF048FA0020704700B593B0C0
:1002800000BF002001903E48006840F080503C498B
:1002900008600846006800F08050019000BF00BF71
:1002A00000BF002001903748006820F480403549A5
:1002B00008600846006800F48040019000BF00BF5D
:1002C0000220029001200590102006900220089044
:1002D0000021099110210A91F0210B9102210C912A
:1002E00007210D9102A801F062FB08B100BFFEE7F3
:1002F0000F200E9002200F90002010904FF480509D
:1003000011900020129002210EA801F054FD08B1B6
:1003100000BFFEE713B000BD10B504F003FE00F00F
:1003200044FC03F01CF804F00CFE10BD70B504464C
:1003300001F059FF6421B0FBF1F5284600F04EFDB5
:1003400000222146501E00F0D3FC002070BD01B5F4
:10035000009806F042FC08BD7047704710B500F0E9
:10036000E8FBFFF78BFF00F0B4FA0749074805F0F8
:1003700079FB03F01FF806A005F02EFA10BD00006F
:10038000403802400070004000000220602200203F
:10039000756172743100000070B506460D4626B9CD
:1003A0006222FC49FCA005F07EFA25B96322F949D6
:1003B000FEA005F078FAF46B286860600021A16166
:1003C0000C2161610021E161287900F00F0008280B
:1003D00002D0092807D102E00021A16006E04FF415
:1003E0008051A16002E00021A16000BF00BF287918
:1003F000C0F3011010B1012807D102E00021E16033
:1004000006E04FF40051E16002E00021E16000BF2E
:1004100000BF2879C0F3811020B1012805D002283F
:100420000BD106E0002121610AE04FF4C061216197
:1004300006E04FF48061216102E00021216100BFEC
:1004400000BF204602F0E2F808B1012070BD002094
:10045000FCE72DE9F04105460E46174625B9A122D5
:10046000D649CDA005F01FFAEC6B102E13D0112E3B
:1004700025D194F9400000F01F0201219140D04A9B
:10048000430942F8231000BF2068C06820F0200014
:100490002168C86013E094F9400000F01F020121B8
:1004A00091404209920002F1E022C2F8001100BF1F
:1004B0002068C06840F020002168C86000BF00BF0D
:1004C0000020BDE8F08170B504460E4624B9BB2279
:1004D000BC49B1A005F0E7F9E56B00BF28680068EA
:1004E000C0F3C0100028F9D028684660012070BD14
:1004F00070B5044624B9C822B349A7A005F0D3F9C2
:10050000E56B4FF0FF3628680068C0F3401010B16B
:1005100028684068C6B2304670BD10B5AB4C04F0D8
:1005200001FD20680068C0F3401060B12068C06819
:1005300000F0200038B10121A54807F0EFF96FF075
:1005400020002168086004F0FCFC10BD10B5A14C2F
:1005500004F0E8FC20680068C0F3401060B1206837
:10056000C06800F0200038B101219B4807F0D6F99F
:100570006FF020002168086004F0E3FC10BD10B5A6
:10058000964C04F0CFFC20680068C0F3401060B1C6
:100590002068C06800F0200038B10121904807F0C1
:1005A000BDF96FF020002168086004F0CAFC10BD9E
:1005B00010B586B004468B49206888424FD100BFF1
:1005C000002000908848006840F0080086490860D4
:1005D0000846006800F00800009000BF00BF00BFA0
:1005E000002000900846006840F0080008600846B7
:1005F000006800F00800009000BF00BF00BF0020AE
:10060000009079481030006840F40030764910318D
:1006100008600846006800F40030009000BF00BF8A
:1006200020200190022002900120039002200490DB
:100630000720059001A96D4800F0D2FF40200190ED
:100640000720059001A9694800F0CAFF0122002196
:10065000262000F04DFB262000F088FBDFE06449F7
:100660002068884250D100BF002000905E4800689A
:1006700040F001005C4908600846006800F0010095
:10068000009000BF00BF00BF002000900846006837
:1006900040F0010008600846006800F0010000908A
:1006A00000BF00BF00BF002000904F48143000681A
:1006B00040F010004C49143108600846006800F012
:1006C0001000009000BF00BF48150190022002906A
:1006D00001200390022004900720059001A94548BD
:1006E00000F07EFF4FF4806001900720059001A983
:1006F000404800F075FF01220021252000F0F8FAA3
:10070000252000F033FB8AE03B492068884277D1FE
:1007100000BF002000903448006840F004003249D7
:1007200008600846006800F00400009000BF00BFA9
:1007300000BF002000900846006840F004000860F8
:100740000846006800F00400009000BF00BF00BF32
:100750000020009024481430006840F02000224916
:10076000143108600846006800F02000009000BFC7
:1007700000BF40200190022002900120039002203F
:1007800004900720059001A91C4800F029FF802053
:10079000019036E064D7000873657269616C2021AE
:1007A0003D2052545F4E554C4C000000636667205C
:1007B000213D2052545F4E554C4C000072D700082A
:1007C00080E100E07ED7000887D70008980100206C
:1007D000DC0100203002002074020020C80200204A
:1007E0000C0300200044004030380240000C02405E
:1007F00000100140000002400014014000080240C7
:100800000DE00720059001A94F4800F0E9FE012204
:100810000021472000F06CFA472000F0A7FA06B04C
:1008200010BD10B5044649492068884216D1484891
:10083000006840F40030464908600846006820F42B
:10084000003008602021434800F0B8FF40214148B3
:1008500000F0B4FF262000F096FA39E03E49206807
:10086000884219D13A48001D006840F0100038490C
:10087000091D08600846006820F01000086049154E
:10088000364800F09BFF4FF48061344800F096FF3B
:10089000252000F078FA1BE031492068884217D102
:1008A0002B48001D006840F020002949091D086000
:1008B0000846006820F0200008604021224800F02F
:1008C0007DFF8021204800F079FF472000F05BFA8F
:1008D00010BD1CB5234903C9CDE90001224C1E48B7
:1008E00020602248224908640846DDE90012C0E978
:1008F0001112234640F203121EA106F094FF1F4C72
:100900001248206019481E4908640846DDE90012B3
:10091000C0E91112234640F203121AA106F083FF28
:100920001A4C0F4820601148194908640846DDE94F
:100930000012C0E91112234640F2031215A106F07D
:1009400072FF00201CBD000000080240004400406F
:1009500020380240000C024000100140000002401C
:100960000014014090D700089801002050D70008DB
:10097000DC0100207561727431000000300200203B
:10098000740200207561727432000000C8020020F9
:100990000C0300207561727436000000704700BFC0
:1009A000FEE700BFFEE700BFFEE770473F48006874
:1009B00040F470003D4908603D48006840F0010087
:1009C0003B49086000203A4908310860384800680F
:1009D00038490840364908603748091D0860081F33
:1009E000006820F48020091F0860002030490C3185
:1009F00008604FF000602D4980390860704770B57D
:100A000000200022022300240221294D08352D68F0
:100A100005F00C0020B1042806D0082834D107E0E6
:100A2000264D274E356033E0264D254E35602FE0AC
:100A30001F4D2D1D2D68C5F380541D4D2D1D2D6896
:100A400005F03F0154B11F4DB5FBF1F5184E361DB1
:100A50003668C6F3881605FB06F209E0174DB5FBAC
:100A6000F1F5134E361D3668C6F3881605FB06F2FF
:100A70000F4D2D1D2D68C5F301456D1C6B00B2FB9C
:100A8000F3F50F4E356003E00C4D0D4E356000BFA1
:100A900000BF074D08352D68C5F303150A4E705D7C
:100AA000074D2D68C540064E356070BD88ED00E0ED
:100AB00000380240FFFFF6FE103000240024F4004E
:100AC0000000002000127A0098D7000809488047EB
:100AD00009480047FEE7FEE7FEE7FEE7FEE7FEE720
:100AE000FEE7FEE7FEE7FEE704480549054A064B38
:100AF00070470000AD090008890100086016002059
:100B000060220020601E0020601E0020704770B52B
:100B1000044601F068FB4FF47A71B0FBF1F528460A
:100B200000F05CF900222146501E00F0E1F80020A0
:100B300070BD10B55748006840F400705549086012
:100B40000846006840F4806008600846006840F489
:100B500080700860032000F0B9F80F20FFF7E6FB73
:100B600000F020FF002010BD704710B54FF0FF309F
:100B70004949086000200860401E091D08600020E7
:100B80000860401E44491039086000200860401E7B
:100B9000091D086000200860401E091D0860002033
:100BA000086000F000FF002010BD3C480068401CB9
:100BB0003A490860704739480068704731B50024E9
:100BC000FFF7F9FF044600BFFFF7F5FF001B009990
:100BD0008842F9D338BD4FF0E020006920F00200D0
:100BE0004FF0E021086170474FF0E020006940F0CD
:100BF00002004FF0E02108617047294870472948FA
:100C00000068000C704727480068C0F30B0070476D
:100C10002448406840F0010022494860704721485C
:100C2000406820F001001F49486070471D48406837
:100C300040F002001B49486070471A48406820F0A5
:100C400002001849486070471648406840F00400A8
:100C50001449486070471348406820F00400114967
:100C600048607047012090FAA0F1B1FA81F10E4A74
:100C700002EB8101C1F8000470470020012191FAC4
:100C8000A1F1B1FA81F1084A02EB8101C1F8000437
:100C900070470000003C0240203802400400002061
:100CA00000030401002004E00000274210B50028E2
:100CB00007DA0A07140EBF4A00F00F031B1FD454B3
:100CC00003E00A07130EBC4A135410BD00BF00F026
:100CD0000702B84B0C3B19684FF6FF031940B74B9E
:100CE0000B4343EA0221B34B0C3B196000BF704732
:100CF0002DE9F05F80460D461646002700F054F9B6
:100D0000074639462A46334601F00700C0F1070A74
:100D1000BAF1040F02D94FF0040A01E0C0F1070A4A
:100D2000D14600F1040ABAF1070F02D24FF0000ACF
:100D300001E0A0F1030AD4464FF0010A0AFA09FAC9
:100D4000AAF1010A0AEA020A0AFA0CFA4FF0010BA8
:100D50000BFA0CFBABF1010B0BEA030B4AEA0B0499
:100D600021464046FFF7A2FFBDE8F09F00BF00F01C
:100D70001F02012191404209920002F1E022C2F8D3
:100D8000001100BF704700BF00F01F020121914019
:100D90008B4A430942F8231000BF704700BF00BFD1
:100DA00000BF00BF00BFBFF34F8F00BF00BF00BF39
:100DB00080480C38006800F4E06080490843001D5A
:100DC0007C490C39086000BF00BF00BFBFF34F8FE4
:100DD00000BF00BF00BF00BF00BFFDE770B5044605
:100DE0002546681EB0F1807F01D301200FE0681E08
:100DF0004FF0E02148610F214FF0FF30FFF756FF21
:100E000000204FF0E021886107200861002070BDBC
:100E10004178684A803211600178F9B1121D416849
:100E20001160017B0907C27A41EA0261827A41EAD4
:100E3000C241427B41EA8241827B41EA4241C27B1C
:100E400041EA0241427A41EA0221027A41EA420140
:100E500002781143574A8832116005E00021554A53
:100E600084321160121D1160704710B500F09CF8BB
:100E700010BD2DE9F04304462046002808DA4D4F06
:100E800000F00F0CACF1040C17F80C703F0902E0F5
:100E9000494F3F5C3F093D460E4606F00700C0F152
:100EA0000708B8F1040F02D94FF0040801E0C0F1BF
:100EB0000708C44600F10408B8F1070F02D24FF04A
:100EC000000801E0A0F10308474625FA07F84FF0B3
:100ED000010909FA0CF9A9F1010908EA0908C2F89F
:100EE00000804FF0010808FA07F8A8F1010808EAA5
:100EF0000508C3F8008000BFBDE8F08300BF00F024
:100F00001F02012191402E4A8032430942F82310EA
:100F100000BF704710B501460846294A8032430990
:100F200052F8232000F01F040123A3401A400AB105
:100F3000012200E00022104610BD00BF00F01F0299
:100F4000012191401F4A430942F8231000BF704716
:100F500010B5014608461B4A8032430952F8232047
:100F600000F01F040123A3401A400AB1012200E04F
:100F70000022104610BD042808D14FF0E021096975
:100F800041F004014FF0E022116107E04FF0E02151
:100F9000096921F004014FF0E022116170477047A8
:100FA00010B5FFF7FCFF10BD02480C380068C0F315
:100FB0000220704718ED00E000E400E00000FA05B0
:100FC00080E100E080E200E0014608781038182354
:100FD000B0FBF3F2F648805C4865032A05D908683F
:100FE0006FF30900001D086503E008686FF309004E
:100FF0000865086D704770B5044600250CB90120DE
:1010000070BD606A00B100BF022084F8350020681E
:101010000568E8480540D4E901010843E168084350
:101020002169084361690843A1690843E1690843EC
:10103000216A08430543606A042803D1D4E90B01FF
:1010400008430543206805602068456925F00705C9
:10105000606A0543606A042801D1A06A05432068DC
:1010600045612046FFF7B0FF0020E064012084F8CE
:1010700035000020C4E770B504460CB9012070BDEE
:1010800094F83500022801D10120F8E720680068B3
:1010900020F00100216808600020216808602168B4
:1010A0004860216888602168C86021680861212043
:1010B000216848612046FFF787FF054694F85410E1
:1010C0003F208840A8600020E06484F8350000BF1D
:1010D00084F8340000BF00BFD1E730B5046824684D
:1010E00024F4802405682C60046863608468402CC4
:1010F00004D10468A2600468E16003E00468A160B0
:101100000468E26030BD2DE9F04104460D46164604
:101110001F4600BF94F83400012802D10220BDE828
:10112000F081012084F8340000BF022084F83500EB
:101130002068006820F00100216808603B463246C4
:1011400029462046FFF7C9FF2068006840F00100EB
:10115000216808600020E2E72DE9F04104460D46D1
:1011600016461F4600BF94F83400012802D1022021
:10117000BDE8F081012084F8340000BF022084F82B
:1011800035002068006820F00100216808603B46B7
:10119000324629462046FFF7A0FF2068006840F04D
:1011A0001E00216808602068406940F080002168C6
:1011B00048612068006840F0010021680860002054
:1011C000D6E770B5044600252068006820F00100CD
:1011D00021680860FFF7EFFC054612E0FFF7EBFC23
:1011E000401BB0F57A7F0CD9E06C40F02000E06441
:1011F00000BF002084F8340000BF032084F83500CD
:1012000070BD2068006800F001000028E6D100BF32
:1012100084F8340000BF012084F835000020EFE797
:101220002DE9F84F04460F46164600200090256D24
:101230002FB994F85410202000FA01F804E094F833
:101240005410102000FA01F8FFF7B5FC009064E09C
:10125000286814F8542F0821914000EA01092868F1
:1012600022785549914000EA010A286814F8542967
:101270005149C91C914000EA010BB9F1000F05D199
:10128000BAF1000F02D1BBF1000F2FD0B9F1000F5E
:1012900008D0E06C40F00100E06494F8541008209D
:1012A0008840A860BAF1000F08D0E06C40F002005E
:1012B000E06494F8541040488840A860BBF1000FE7
:1012C00009D0E06C40F00400E06494F854103A480F
:1012D000C01C8840A860042084F8350000BF0020AE
:1012E00084F8340000BF0120BDE8F88F701CA0B165
:1012F0002EB1FFF760FC0099401AB0420DD9E06CA6
:1013000040F02000E064032084F8350000BF002096
:1013100084F8340000BF0320E6E7286800EA0800EC
:10132000002895D01FBB94F8541030208840A86046
:101330002068006800F4802088B12068006800F40C
:10134000002018B9112084F835000BE020680068EF
:1013500000F4002030B1212084F8350002E0112093
:1013600084F8350000BF002084F834001EE094F8B3
:10137000541010208840A8602068006800F4802085
:1013800088B12068006800F4002018B9312084F882
:1013900035000BE02068006800F4002030B14120E7
:1013A00084F8350002E0312084F8350000209BE706
:1013B000A8D700083F8010F00100800070B50446F7
:1013C000256D286894F8542008219140084000B306
:1013D0002068006800F00400D8B12068006820F0A0
:1013E00004002168086094F8541008208840A86020
:1013F000E06C40F00100E064042084F8350000BF98
:10140000002084F8340000BFA06C10B12046A16C0D
:101410008847286894F8542070499140084000B3E8
:101420002068406900F08000D8B12068406920F051
:1014300080002168486194F8541068488840A8608A
:10144000E06C40F00200E064042084F8350000BF46
:10145000002084F8340000BFA06C10B12046A16CBD
:101460008847286894F854205C49C91C914008407A
:1014700008B32068006800F00200E0B1206800684E
:1014800020F002002168086094F854105348C01CF2
:101490008840A860E06C40F00400E064042084F818
:1014A000350000BF002084F8340000BFA06C10B1EC
:1014B0002046A16C8847286894F854201021914058
:1014C0000840C0B32068006800F0080098B32068A6
:1014D000006800F48020B0B194F8541010208840C7
:1014E000A8602068006800F4002018B9312084F852
:1014F00035001BE02068006800F40020B0B14120F6
:1015000084F8350012E02068006800F4807028B983
:101510002068006820F008002168086094F85410E2
:1015200010208840A860312084F83500206C10B16C
:101530002046216C8847286894F854202021914047
:10154000084018B32068006800F01000F0B120686F
:10155000006800F48020D0B194F854102020884016
:10156000A8602068006800F4002028B9606C68B1A9
:101570002046616C884729E02068006800F400205C
:1015800020B1E06B10B12046E16B88471EE0206877
:10159000006800F4807028B92068006820F010000E
:1015A0002168086094F8541020208840A860E06CFE
:1015B000E064112084F8350000BF002084F8340076
:1015C00000BFE06B10B12046E16B884770BD01465B
:1015D00091F8350070470146C86C704701008000E3
:1015E000F8B502460B460025002400200021E1E06A
:1015F000012606FA01F51E6806EA0504AC4273D11D
:101600005E68022E02D05E68122E13D1CF0802F15E
:10161000200656F827004E07F70E0F26BE40B043AF
:101620004F07FF0E1E69BE403043CF0802F120066F
:1016300046F8270010684F000326BE40B0431E79CD
:1016400006F003064F00BE40304310605E68012E76
:1016500008D05E68022E05D05E68112E02D05E684A
:10166000122E13D190684F000326BE40B0434F00A6
:10167000DE68BE4030439060506801268E40B04323
:101680001E79C6F300168E4030435060D0684F007C
:101690000326BE40B0434F009E68BE403043D0603A
:1016A0005E6806F08056B6F1805FA8D100BF0026C4
:1016B0000096B04E366846F48046AE4F3E603E46D9
:1016C000366806F48046009600BF00BFAA4E8F0819
:1016D00056F827008E07370F0F26BE40B043A74E9F
:1016E000B24202D1002629E063E0A54EB24201D108
:1016F000012623E0A34EB24201D102261EE0A24EF3
:10170000B24201D1032619E0A04EB24201D1042613
:1017100014E09F4EB24201D105260FE09D4EB24229
:1017200001D106260AE09C4EB24201D1072605E00F
:101730009A4EB24201D1082600E009268F073F0FDA
:10174000BE4030438C4E8F0846F82700944E3068D8
:10175000A0435E6806F48036B6F5803F00D1204392
:101760008F4E3060361D3068A0435E6806F4003648
:10177000B6F5003F00D12043894E361D3060361D3E
:101780003068A0435E6806F48016B6F5801F00D16D
:101790002043834E08363060361D3068A0435E68B3
:1017A00006F40016B6F5001F00D120437C4E0C361F
:1017B0003060491C1029FFF41BAFF8BDF0B50C4692
:1017C000002500220023002197E0012606FA01F5FA
:1017D00004EA0502AA427DD106684FEA410C0327BC
:1017E00007FA0CF7BE430660CF0800F1200656F852
:1017F00027604F074FEAD76C0F2707FA0CF7BE4355
:101800004FEAD10C00F1200747F82C6086684FEAB8
:10181000410C032707FA0CF7BE4386604768012690
:101820008E40B7434760C6684FEA410C032707FA6A
:101830000CF7BE43C660504E8F0856F827308E070F
:10184000370F0F26BE4033404C4EB04201D1002628
:1018500028E04B4EB04201D1012623E0494EB04270
:1018600001D102261EE0484EB04201D1032619E004
:10187000464EB04201D1042614E0454EB04201D19B
:1018800005260FE0434EB04201D106260AE0424E43
:10189000B04201D1072605E0404EB04201D10826F2
:1018A00000E009268F073F0FBE409E4224D18E07DD
:1018B000370F0F2606FA07F32F4E8F0856F82760CA
:1018C0009E432D4F4FEA910C47F82C60344E3668FA
:1018D000964300E010E0324F3E603E1D366896436E
:1018E0003F1D3E603E1D366896433F1D3E603E1DD7
:1018F000366896433F1D3E60491C1029FFF465AFD2
:10190000F0BD024613690B400BB1012000E000203E
:1019100070470AB1816101E00B048361704742693D
:101920004A404261704708B502464FF4803000904B
:101930000098084300900098D061D1610098D06170
:10194000D0690090D06900F4803008B1002008BD53
:101950000120FCE7704710B50446114814300068B8
:10196000204028B10E48143004602046FFF7F2FFF3
:1019700010BD000044380240083801400000024019
:101980000004024000080240000C02400010024027
:101990000014024000180240001C024000200240D7
:1019A000003C01407047704770477047704738B53A
:1019B00004460025207800F00100002866D0F74892
:1019C000006800F00C0004280DD0F448006800F016
:1019D0000C00082813D1F148001F006800F48000B3
:1019E000B0F5800F0BD1ED4808380068C0F34040D7
:1019F00000284BD06068002848D1012038BD002065
:101A0000E649891F0870FFF7D6F8054608E0FFF79A
:101A1000D2F8401B41F28831884201D90320EDE71A
:101A2000DE4808380068C0F340400028EFD1207934
:101A3000DA49891F08706068A0B1FFF7BCF8054655
:101A400008E0FFF7B8F8401B41F28831884201D91D
:101A50000320D3E7D14808380068C0F3404000288D
:101A6000EFD013E0FFF7A7F8054608E0FFF7A3F86B
:101A7000401B41F28831884201D90320BEE7C748A4
:101A800008380068C0F340400028EFD1207800F00B
:101A90000200022869D1C148006800F00C0058B16A
:101AA000BE48006800F00C00082821D1BB48001F88
:101AB000006800F48000D8B9B84808380068C0F35E
:101AC000400020B1E068012801D0012096E7B3482A
:101AD0000838006820F0F800F82292FAA2F2B2FA70
:101AE00082F2216991400843AC49083908603CE022
:101AF000E06828B30120AA490860FFF75CF80546B2
:101B000006E0FFF758F8401B642801D9032075E769
:101B1000A24808380068C0F340000028F1D09F4870
:101B20000838006820F0F800F82292FAA2F2B2FA1F
:101B300082F221699140084398490839086014E00D
:101B4000002097490860FFF736F8054606E0FFF7E2
:101B500032F8401B642801D903204FE78F4808382A
:101B60000068C0F340000028F1D1207800F00800A0
:101B700008282CD16069A8B101208A490860FFF7C4
:101B80001AF8054606E0FFF716F8401B642801D94D
:101B9000032033E781486C300068C0F34000002820
:101BA000F1D014E000207F490860FFF704F80546F3
:101BB00006E0FFF700F8401B642801D903201DE769
:101BC00076486C300068C0F340000028F1D12078DE
:101BD00000F0040004286FD100BF002000906F487F
:101BE0003830006840F080506C4938310860084651
:101BF000006800F08050009000BF00BF6A48006895
:101C000040F4807068490860FEF7D5FF054606E09D
:101C1000FEF7D1FF401B642801D90320EEE662489D
:101C2000006800F480700028F2D000205B49683121
:101C30000870FEF7C0FF054608E0FEF7BCFF401B3A
:101C400041F28831884201D90320D7E653486830F1
:101C50000068C0F340000028EFD1207A4F49683176
:101C60000870A068A0B1FEF7A6FF054608E0FEF7E1
:101C7000A2FF401B41F28831884201D90320BDE612
:101C8000464868300068C0F340000028EFD013E0F9
:101C9000FEF791FF054608E0FEF78DFF401B41F27D
:101CA0008831884201D90320A8E63C4868300068A2
:101CB000C0F340000028EFD1A069E8B337480068BE
:101CC00000F00C00082872D0A069022850D1002032
:101CD00033490866FEF76FFF054606E0FEF76BFF27
:101CE000401B642801D9032088E62C480838006886
:101CF000C0F340600028F1D1D4E90701084347F65A
:101D0000C07292FAA2F2B2FA82F2616A914008437A
:101D10000122A16AC2EB51014FF4403292FAA2F2C1
:101D2000B2FA82F2914008434FF0706292FAA2F246
:101D3000B2FA82F2E16A00E03BE0914008431749C1
:101D4000091F0860012016490866FEF734FF0546A2
:101D500006E0FEF730FF401B642801D903204DE662
:101D60000E4808380068C0F340600028F1D020E039
:101D700000200B490866FEF71EFF054606E0FEF749
:101D80001AFF401B642801D9032037E603480838AE
:101D90000068C0F340600028F1D10AE00838024032
:101DA00000004742800E474200700040FFE70120DC
:101DB00024E6002022E670B504460E460025FE48C3
:101DC000006800F00F00B0426FD2FB490E70084669
:101DD000006800F00F00B04201D0012070BD2078F3
:101DE00000F00200022807D1F448006820F0F0005B
:101DF000A1680843F1490860207800F0010000283C
:101E00003ED06068012807D1EC4808380068C0F36C
:101E10004040B8B90120E1E76068022802D060685C
:101E2000032807D1E54808380068C0F3406048B986
:101E30000120D3E7E14808380068C0F3400008B942
:101E40000120CBE7DD48006820F00300616808430B
:101E5000DA490860FEF7AFFE05466068012810D138
:101E600008E0FEF7A8FE401B41F28831884201D904
:101E70000320B3E7D148006800F00C000428F0D13B
:101E8000CDE06068022811D108E0FEF794FE401B07
:101E900041F28831884201D903209FE7C748006892
:101EA00000F00C000828F0D1B9E024E060680328B5
:101EB00010D108E0FEF77FFE401B41F288318842D6
:101EC00001D903208AE7BD48006800F00C00032810
:101ED000F0D1A4E008E0FEF76EFE401B41F288312D
:101EE000884201D9032079E7B448006800F00C006B
:101EF0000028F0D193E0207800F00200022807D1FA
:101F0000AE48006820F0F000A1680843AB490860C3
:101F1000207800F00100002877D06068012807D100
:101F2000A64808380068C0F34040B8B9012055E71A
:101F30006068022802D06068032807D19F480838EB
:101F40000068C0F3406048B9012047E79B48083863
:101F50000068C0F3400008B901203FE797480068D7
:101F600020F003006168084394490860FEF723FEEF
:101F700005466068012810D108E0FEF71CFE401BF2
:101F800041F28831884201D9032027E78B48006855
:101F900000F00C000428F0D137E06068022810D16E
:101FA00008E0FEF708FE401B41F28831884201D963
:101FB000032013E78148006800F00C000828F0D1E6
:101FC00023E06068032810D108E0FEF7F4FD401B11
:101FD00041F28831884201D90320FFE67748006842
:101FE00000F00C000328F0D10FE008E0FEF7E3FD5D
:101FF000401B41F28831884201D90320EEE66F4848
:10200000006800F00C000028F0D16B490E70084603
:10201000006800F00F00B04201D00120DEE6207819
:1020200000F00400042807D16448006820F4E05060
:10203000E168084361490860207800F0080008283A
:1020400008D15E48006820F46040216940EAC10080
:102050005A4908600F20FEF769F90020BEE670B506
:1020600086B006460C46154646BB00BF00200090D1
:1020700052482830006840F001005049283108607B
:102080000846006800F00100009000BF00BF8815FE
:1020900001900220029003200490002003900590FC
:1020A00001A94748FFF79CFA4448006820F0EC601B
:1020B00044EA050108434149086027E000BF0020C9
:1020C00000903E482830006840F004003B49283129
:1020D00008600846006800F00400009000BF00BFE0
:1020E00048150190022002900320049000200390E4
:1020F000059001A93348FFF773FA3048006820F0D3
:10210000784044EAC50108432C49086006B070BD18
:1021100001202D49C864704700202B49C8647047CE
:1021200070B50021002200230020244C246804F014
:102130000C0424B1042C04D0082C50D103E0234813
:102140004FE023484DE01D4C241F246804F03F015C
:102150001A4C241F246804F4800484B11C4CB4FB82
:10216000F1F5164C241F246847F6C076344096FAE1
:10217000A6F6B6FA86F6F44005FB04F20FE0134C1F
:10218000B4FBF1F50D4C241F246847F6C0763440AB
:1021900096FAA6F6B6FA86F6F44005FB04F2074C6A
:1021A000241F246804F440344FF4403595FAA5F513
:1021B000B5FA85F5EC400DE0003C024008380240DD
:1021C0000000024000080240000047420024F400E2
:1021D00000127A00641C6300B2FBF3F001E07F4858
:1021E00000BF00BF70BD10B5FFF79AFF7C490968BA
:1021F00001F0F001F02292FAA2F2B2FA82F2D1409A
:10220000784A515CC840784908600846006810BDAB
:1022100010B5FFF7E8FF7249096801F4E0514FF487
:10222000E05292FAA2F2B2FA82F2D1406D4A515CC7
:10223000C84010BD10B5FFF7D6FF6949096801F421
:1022400060414FF4604292FAA2F2B2FA82F2D140B7
:10225000644A515CC84010BD0F21016060490839D3
:10226000096801F48021B1F5802F02D10521416078
:102270000CE05B490839096801F48031B1F5803F11
:1022800002D10121416001E0002141605449083937
:10229000096801F0010111B10121C16001E00021D3
:1022A000C1604F490839096801F0F801F82292FA33
:1022B000A2F2B2FA82F2D14001614949683109685B
:1022C00001F00401042902D1052181600AE044499A
:1022D0006831096801F0010111B10121816001E05B
:1022E000002181603E496C31096801F0010111B1A2
:1022F0000121416101E00021416139490839096842
:1023000001F08071B1F1807F02D10221816101E091
:10231000012181613249091F096801F48002C2610B
:102320002F49091F096801F03F0202622C49091F69
:10233000096847F6C072114092FAA2F2B2FA82F22C
:10234000D14041622649091F096801F4403101F575
:10235000803149004FF4403292FAA2F2B2FA82F28E
:10236000D14081621E49091F096801F070614FF078
:10237000706292FAA2F2B2FA82F2D140C162704760
:102380000F220260164A126802F003024260144AE9
:10239000126802F0F0028260114A126802F4E05200
:1023A000C2600F4A126802F46042D20802610F4A0A
:1023B000126802F00F020A607047704710B50848B3
:1023C000001D006800F08000802805D1FFF7F5FFB0
:1023D00080200349891D087010BD00000024F4000E
:1023E00008380240B0D7000800000020003C02403E
:1023F0002DE9F041044600252068056925F4405583
:10240000E0680543206805612068C56849F20C60F2
:1024100085432169A068084361690843E16908436D
:1024200005432068C5602068456925F44075A069AA
:10243000054320684561E069B0F5004F72D1FE495F
:102440002068884203D0FD492068884234D1FFF7D4
:10245000F1FE00EBC00101EB001061684900B0FB28
:10246000F1F06421B0FBF1F6FFF7E4FE00EBC001F0
:1024700001EB001061684900B0FBF1F7FFF7DAFEED
:1024800000EBC00101EB001061684900B0FBF1F006
:102490006421B0FBF1F000EBC00101EB0010A7EBF1
:1024A0008000322101EB00106421B0FBF1F066F3F3
:1024B0001F1021688860A6E0FFF7AAFE00EBC001AC
:1024C00001EB001061684900B0FBF1F06421B0FB42
:1024D000F1F6FFF79DFE00EBC00101EB0010616813
:1024E0004900B0FBF1F7FFF793FE00EBC00101EBF1
:1024F000001061684900B0FBF1F06421B0FBF1F01D
:1025000000EBC00101EB0010A7EB8000322101EBD2
:1025100000106421B0FBF1F066F31F1021688860A1
:1025200071E0FFE7C4492068884203D0C3492068AE
:10253000884234D1FFF77EFE00EBC00101EB0010B2
:1025400061688900B0FBF1F06421B0FBF1F6FFF7A0
:1025500071FE00EBC00101EB001061688900B0FB67
:10256000F1F7FFF767FE00EBC00101EB00106168B7
:102570008900B0FBF1F06421B0FBF1F000EBC00189
:1025800001EB0010A7EB8000322101EB0010642169
:10259000B0FBF1F066F31F102168886033E0FFF7AD
:1025A00037FE00EBC00101EB001061688900B0FB51
:1025B000F1F06421B0FBF1F6FFF72AFE00EBC00159
:1025C00001EB001061688900B0FBF1F7FFF720FE16
:1025D00000EBC00101EB001061688900B0FBF1F075
:1025E0006421B0FBF1F000EBC00101EB0010A7EBA0
:1025F0008000322101EB00106421B0FBF1F066F3A2
:102600001F1021688860BDE8F081704710B504464E
:102610000CB9012010BDA06900B100E000BF94F822
:10262000390028B9002084F838002046FDF7C0FFA3
:10263000022084F839002068C06820F40050216826
:10264000C8602046FFF7D4FE2068006920F490405F
:10265000216808612068406920F02A0021684861EB
:102660002068C06840F400502168C8600020E06322
:10267000012084F839000020CCE710B504460CB9DD
:10268000012010BD94F8390028B9002084F83800E2
:102690002046FDF78DFF022084F839002068C068CD
:1026A00020F400502168C8602046FFF7A1FE206892
:1026B000006920F49040216808612068406920F09A
:1026C0002200216848612068406940F008002168C4
:1026D00048612068C06840F400502168C86000204C
:1026E000E063012084F839000020CAE770B5044691
:1026F0000D460CB9012070BD94F8390028B90020AE
:1027000084F838002046FDF753FF022084F8390092
:102710002068C06820F400502168C8602046FFF798
:1027200067FE2068006920F4006021680861206865
:10273000406920F02A00216848612068006940F45F
:102740008040216808612068006920F0200021682D
:102750000861206800692843216808612068C06812
:1027600040F400502168C8600020E063012084F834
:1027700039000020BFE770B504460D4616460CB977
:10278000012070BD94F8390028B9002084F8380081
:102790002046FDF70DFF022084F839002068C0684C
:1027A00020F400502168C8602046FFF721FE206811
:1027B000006920F49040216808612068406920F099
:1027C0002A00216848612068006920F00F00216814
:1027D0000861206800692843216808612068C06892
:1027E00020F400602168C8602068C0683043216818
:1027F000C8602068C06840F400502168C8600020AC
:10280000E063012084F839000020BAE7704710B572
:1028100004460CB9012010BD022084F8390020467E
:10282000FDF7FFFF0020E06384F8390000BF84F863
:10283000380000BF00BFEEE7001001400014014067
:102840002DE9F04104460E4617461D464FF000089C
:10285000FEF7B1F980469FBB2BE0681C48B32DB151
:10286000FEF7A9F9A0EB0800A84222D92068C068A9
:1028700020F080002168C8602068C06820F0200037
:102880002168C8602068C06820F480702168C86032
:102890002068406920F0010021684861012084F827
:1028A000390000BF002084F8380000BF0320BDE8D5
:1028B000F081206800683040B04202D1012001E080
:1028C00003E000200028C8D035E02AE0681C40B3AF
:1028D0002DB1FEF770F9A0EB0800A84221D92068BD
:1028E000C06820F080002168C8602068C06820F0BF
:1028F00020002168C8602068C06820F480702168CA
:10290000C8602068406920F001002168486101200A
:1029100084F8390000BF002084F8380000BF03208D
:10292000C5E7206800683040B04201D1012000E0D6
:1029300000200028CAD10020B9E72DE9F04704465D
:102940000D46164699464FF0000894F83980B8F1C4
:10295000010F02D0B8F1220F65D105B116B90120DF
:10296000BDE8F08700BF94F83800012801D10220AB
:10297000F6E7012084F8380000BF0020E06394F8F7
:102980003900222803D1322084F8390002E01220D5
:1029900084F83900A684E68428E0E08C401EE084B8
:1029A000A068B0F5805F14D14B46002280212046FC
:1029B000FFF746FF08B10320D2E72F463888C0F35F
:1029C000080021684860206908B9AD1C0EE06D1C44
:1029D0000CE04B46002280212046FFF731FF08B172
:1029E0000320BDE715F8010B21684860E08C002842
:1029F000D3DC4B46002240212046FFF721FF08B1DF
:102A00000320ADE794F83900322803D1222084F85E
:102A1000390002E0012084F8390000BF002084F86A
:102A2000380000BF9CE702209AE72DE9F0470446F2
:102A30000D46164699464FF0000894F83980B8F1D3
:102A4000010F02D0B8F1120F69D105B116B90120FA
:102A5000BDE8F08700BF94F83800012801D10220BA
:102A6000F6E7012084F8380000BF0020E06394F806
:102A70003900122803D1322084F8390002E02220E4
:102A800084F83900A685E68535E0E08D401EE085B6
:102A9000A068B0F5805F18D14B4600222021204667
:102AA000FFF7CEFE08B10320D2E72F46206930B9E8
:102AB00020684068C0F308003880AD1C1BE0206827
:102AC0004068C0B238806D1C15E04B4600222021C2
:102AD0002046FFF7B5FE08B10320B9E7206920B909
:102AE0002068406805F8010B05E02068406800F0A8
:102AF0007F0005F8010BE08D0028C6DC94F8390052
:102B0000322803D1122084F8390002E0012084F831
:102B1000390000BF002084F8380000BF98E7022089
:102B200096E730B50346002493F83940012C01D0D4
:102B3000222C2BD101B10AB9012030BD00BF93F87E
:102B40003800012801D10220F7E7012083F838007E
:102B500000BF19629A84DA840020D86393F83900A0
:102B6000222803D1322083F8390002E0122083F8B2
:102B7000390000BF002083F8380000BF1868C06823
:102B800040F080001D68E8600020D6E70220D4E70E
:102B900030B50346002493F83940012C01D0122CA3
:102BA00037D101B10AB9012030BD00BF93F8380018
:102BB000012801D10220F7E7012083F8380000BF87
:102BC00099629A85DA850020D86393F83900122833
:102BD00003D1322083F8390002E0222083F8390043
:102BE0001868C06840F480701D68E8601868406923
:102BF00040F001001D68686100BF002083F83800C4
:102C000000BF1868C06840F020001D68E860002020
:102C1000CAE70220C8E7704770B50546AC6B0020D4
:102C2000E085E084012084F83900E06B40F010007A
:102C3000E0632046FFF7EFFF70BD704770B50446B4
:102C4000A56B2846FFF7F9FF70BD704770B50546C4
:102C5000AC6B2868006800F4807070B90020E084D4
:102C60002068406920F08000216848612068C068C1
:102C700040F040002168C86002E02046FFF7E5FF11
:102C800070BDF7B504461546002794F83970012F3A
:102C900001D0222F41D1019800B10DB90120FEBD14
:102CA00000BF94F83800012801D10220F7E7012085
:102CB00084F8380000BF01982062A584E5840020D4
:102CC000E06394F83900222803D1322084F83900D7
:102CD00002E0122084F83900FE48216BC863FE48E8
:102CE000216B0864FD48216B886401AE23681A1DBE
:102CF00031682B46206BFEF72FFA6FF040002168F9
:102D000008602068406940F080002168486100BF89
:102D1000002084F8380000BFC1E70220BFE77047F9
:102D200070B50446A56B2846FFF7F9FF70BD7047E4
:102D300070B50546AC6B2868006800F4807090B9E7
:102D40000020E0852068406920F04000216848614B
:102D500094F83900322803D1122084F8390002E0B7
:102D6000012084F839002046FFF7E1FF70BDF7B578
:102D700004461546002794F83970012F01D0122F10
:102D80003CD1019800B10DB90120FEBD00BF94F8FF
:102D90003800012801D10220F7E7012084F838002B
:102DA00000BF0198A062A5850020E06394F8390077
:102DB000122803D1322084F8390002E0222084F85E
:102DC0003900C748616BC863C648616B0864C34873
:102DD000616B886401AE32682368191D2B46606BF5
:102DE000FEF7BAF92068406940F040002168486168
:102DF00000BF002084F8380000BFC6E70220C4E707
:102E0000014600BF91F83800012801D10220704727
:102E1000012081F8380000BF91F83900122806D14E
:102E20000868406920F080000A6850611AE091F853
:102E30003900222806D10868406920F040000A685D
:102E400050610FE091F8390032280BD108684069D1
:102E500020F080000A6850610868406920F0400056
:102E60000A68506100BF002081F8380000BF00BF31
:102E7000CDE708B5014600BF91F83800012801D11F
:102E8000022008BD012081F8380000BF91F8390008
:102E9000122806D10868406940F080000A68506135
:102EA00030E091F83900222811D100BF00200090B5
:102EB00008680068009008684068009000BF00BF84
:102EC0000868406940F040000A6850611AE091F8D3
:102ED0003900322816D100BF002000900868006831
:102EE000009008684068009000BF00BF0868406913
:102EF00040F080000A6850610868406940F0400076
:102F00000A68506100BF002081F8380000BF00BF90
:102F1000B7E710B504462068406920F080002168BA
:102F200048612068406920F0400021684861206BBA
:102F300010B1206BFEF745F9606B10B1606BFEF7C6
:102F400040F9012084F83900002010BD10B5044676
:102F50002068C06820F040002168C86094F83900FB
:102F6000322803D1222084F8390002E0012084F8BD
:102F700039002046FFF769FE002010BD10B501465C
:102F8000002391F83930122B01D0322B2CD18868D4
:102F9000B0F5805F0FD10A6A1088C0F308000C6892
:102FA0006060086918B9086A801C086209E0086A4C
:102FB000401C086205E00C6A601C086220780C68FE
:102FC0006060C88C401E80B2C88458B90868C06868
:102FD00020F080000C68E0600868C06840F04000A5
:102FE0000C68E060002010BD0220FCE770B50446CC
:102FF000002694F83960222E01D0322E52D1A068DA
:10300000B0F5805F13D1A56A206940B92068406897
:10301000C0F308002880A06A801CA06219E0206824
:103020004068C0B22880A06A401CA06211E02069FC
:1030300038B920684068C1B2A26A501CA062117001
:1030400007E02068406800F07F01A26A501CA0627F
:103050001170E08D401E80B2E08508BB2068C0681A
:1030600020F020002168C86094F83900322803D18C
:10307000122084F839000EE02068C06820F48070C7
:103080002168C8602068406920F00100216848611B
:10309000012084F839002046FFF749FE002070BD6A
:1030A0000020FCE70220FAE7F8B5044600250026D8
:1030B0002068006800F001052068C06800F4807690
:1030C000D5B1CEB100BF002000902068006800900C
:1030D000206809E04D2C00083D2C0008192C000840
:1030E000312D0008212D00084068009000BF00BF6E
:1030F000E06B40F00100E06320680068C0F3400529
:103100002068406900F001067DB176B100BF002063
:10311000009020680068009020684068009000BF20
:1031200000BFE06B40F00400E06320680068C0F37B
:1031300080052068406900F001067DB176B100BFCE
:10314000002000902068006800902068406800908F
:1031500000BF00BFE06B40F00200E0632068006841
:10316000C0F3C0052068406900F001067DB176B16A
:1031700000BF002000902068006800902068406830
:10318000009000BF00BFE06B40F00800E0632068E3
:103190000068C0F340152068C06800F020061DB12B
:1031A00016B12046FFF722FF20680068C0F3C01563
:1031B0002068C06800F080061DB116B12046FFF7F8
:1031C000DDFE20680068C0F380152068C06800F04C
:1031D00040061DB116B12046FFF7B8FEE06B28B1DE
:1031E000012084F839002046FFF715FDF8BD01469F
:1031F00000BF91F83800012801D10220704701205A
:1032000081F8380000BF022081F839000868C068E2
:1032100040F001000A68D060012081F8390000BF49
:10322000002081F8380000BF00BFE7E7014600BF7B
:1032300091F83800012801D102207047012081F85F
:10324000380000BF022081F839000868C06840F0EB
:1032500002000A68D060012081F8390000BF002018
:1032600081F8380000BF00BFE7E7014600BF91F8D2
:103270003800012801D102207047012081F8380070
:1032800000BF022081F839000868C06820F0020001
:103290000A68D060012081F8390000BF002081F861
:1032A000380000BF00BFE7E70146002200BF91F8E9
:1032B0003800012801D102207047012081F8380030
:1032C00000BF022081F839000868C26822F00C02B1
:1032D00042F008020868C260012081F8390000BF8E
:1032E000002081F8380000BF00BFE5E7014600225A
:1032F00000BF91F83800012801D102207047012059
:1033000081F8380000BF022081F839000868C268DF
:1033100022F00C0242F004020868C260012081F829
:10332000390000BF002081F8380000BF00BFE5E78A
:10333000014691F8390070470146C86B704700009C
:10334000704717480068704770B5044604F010F8DD
:10335000054613480460284604F00EF870BD10B509
:103360000F480068401C0E49086003F000FB04464B
:10337000A06C401EA064A06C18B9606CA06403F03F
:10338000B4FB03F094FE10BD0146642201FB02F081
:1033900000F2E7304FF47A72B0FBF2F070470000B1
:1033A0000800002000207047002070470020704770
:1033B0000020704710B5264C02E020688047241D8D
:1033C00024488442F9D310BD10B5224C02E0206895
:1033D0008047241D20488442F9D310BD10B504460F
:1033E000FFF7F2FFFCF748FF10BD1CB514200821C1
:1033F0000B020022CDE90010AFF21F0117A003F06D
:103400002CFB044624B9D022164917A002F04BFA2F
:10341000204603F0D6FA1CBD10B503F0A9FFFCF757
:103420009DFF02F094F903F091FE03F099F8FFF785
:10343000DCFF03F097FE00F00BFA03F0ADF800207C
:1034400010BD10B503F094FFFFF7E6FF002010BD9C
:1034500054E600085CE6000864E600086D61696EE9
:1034600000000000C0D7000874696420213D20528C
:10347000545F4E554C4C00002DE9F041064603F0D8
:1034800076FA08B103F035F9A34D6C6810E0A4F1A9
:103490000C0708223146384601F087FE38B903F0A0
:1034A00066FA08B103F033F93846BDE8F0812468C4
:1034B000281D8442EBD103F05AFA08B103F027F932
:1034C0000020F2E770B504460D46164614B94FF0D9
:1034D000FF3070BD2846FFF7CFFF10B14FF0FF302F
:1034E000F7E72A460721204602F0C5FEE6820020C3
:1034F000A076208300BFECE710B5044624B948222B
:10350000864987A002F0CFF9204602F0DAFE0020BB
:1035100010BD0020704770B50446002524B99522DF
:1035200083497FA002F0BFF9606A90B1A07D00F0EE
:10353000100070B92046616A884705462DB12A46B9
:1035400021467CA002F0D3F803E0E08A40F01000AE
:10355000E082284670BD70B504460E46002524B9A9
:10356000B82282496EA002F09EF9A07D00F0100002
:1035700088B9606A58B12046616A8847054635B106
:103580002A4621466BA002F0B2F8284670BDE08AB8
:1035900040F01000E082A07D00F0080030B1207EF5
:1035A00000F0080010B16FF00600EFE7A06A20B14C
:1035B00031462046A26A904705460DB1A81D60B964
:1035C00046F008002083A07E401CA076A07E20B993
:1035D000E122664966A002F066F92846D6E770B592
:1035E0000446002524B9F32266494DA002F05BF998
:1035F000A07E10B94FF0FF3070BDA07E401EA076B7
:10360000A07E08B10020F7E7E06A18B12046E16A21
:10361000884705460DB1A81D08B90020208328461B
:10362000EAE72DE9F04104460D4616461F462CB93F
:103630004FF48E7254493AA002F035F9A07E30B9A9
:103640004FF0FF3001F0A2FC0020BDE8F081206BBC
:1036500038B13B46324629462046D4F830C0E047D0
:10366000F3E76FF0050001F091FC0020EDE72DE994
:10367000F04104460D4616461F462CB94FF4A17280
:10368000424927A002F00FF9A07E30B94FF0FF3079
:1036900001F07CFC0020BDE8F081606B38B13B4656
:1036A000324629462046D4F834C0E047F3E76FF0AD
:1036B000050001F06BFC0020EDE770B504460D46F7
:1036C00016462CB94FF4B172314915A002F0EBF84F
:1036D000A06B28B1324629462046A36B984770BD9F
:1036E0000020FCE770B504460D462CB940F27B1271
:1036F00028490BA002F0D7F8E561002070BD70B535
:1037000004460D462CB94FF4C872234904A002F0B8
:10371000CAF82562002070BDB0000020D4D7000890
:1037200064657620213D2052545F4E554C4C00007C
:10373000E9D70008546F20696E697469616C697A11
:1037400065206465766963653A2573206661696CF6
:1037500065642E20546865206572726F7220636FF5
:1037600064652069732025640A000000F8D700080A
:103770006465762D3E7265665F636F756E74202199
:103780003D20300007D8000817D8000826D80008C8
:1037900036D8000848D8000862D800083A490860BE
:1037A000704770B544E000BF03F0E2FD064601F04B
:1037B000D7FB40B1354936A001F099FF5E2233496D
:1037C0003CA002F070F8304603F0D6FD00BF03F0D5
:1037D000CFFD054600F04FF8E0B137480068A0F192
:1037E000140404F11400D0E900215160D0E9001262
:1037F00011604060006000BFA06F10B12046A16F53
:103800008847204602F0E5FD012807D1284603F04D
:10381000B3FD70BD284603F0AFFDFAE7284603F07C
:10382000ABFDA06A02F088FA204602F0A8FD00BFB6
:1038300000F021F80028B6D100BFEAE707E01248FF
:10384000006810B1104800688047FFF7AAFFF6E74C
:103850001FB520201F214201184BCDE90032CDE9D0
:1038600002100023164A17A1184803F05BF8174806
:1038700003F0A7F81FBD10490868884201D0012055
:1038800070470020FCE700000C0000207CD80008F6
:1038900046756E6374696F6E5B25735D2073686136
:1038A0006C6C206E6F74207573656420696E20499E
:1038B00053520A0030000000F4000020E003002012
:1038C0003D3800087469646C6500000060030020E6
:1038D0004268116042684A604160086070472DE9A3
:1038E000F04105460C469046204603F02AF9B8F10F
:1038F000000F03D0B8F1010F23D105E004F114014A
:103900002846FFF7E5FF1CE02E680FE0A6F114073C
:1039100094F8350097F83510884206DA04F114015E
:1039200007F11400FFF7D4FF02E03668AE42EDD194
:1039300000BFAE4204D104F114012846FFF7C8FFCE
:1039400000BF00BF0020BDE8F08170B505460EE065
:1039500003F00EFD06462868A0F114044FF0FF3076
:103960002063204603F006F8304603F005FD2846A4
:1039700001F0B0FA0028EBD0002070BD2DE9F04135
:1039800004460D4616461F4624B9D822FD49FEA01E
:1039900001F089FF2A460121204602F06CFC2046F6
:1039A00001F0A0FAA68367720020BDE8F08110B58F
:1039B000044624B9F522F849F3A001F074FF04F19C
:1039C0001400FFF7C2FF204602F07BFC002010BD70
:1039D0002DE9F04105460E46174600BF03F0C8FC2E
:1039E000804601F0BDFA48B1EC49EDA001F07FFE40
:1039F00040F21112E949F3A001F055FF404603F0EF
:103A0000BBFC00BF2946012002F077FC044614B934
:103A10002046BDE8F081204601F064FAA683677273
:103A20002046F6E770B5044600BF03F0A1FC05464A
:103A300001F096FA48B1E449D9A001F058FE4FF4DC
:103A40009872E149DFA001F02EFF284603F094FCB4
:103A500000BF2CB94FF49972DB49CBA001F023FFD2
:103A600004F11400FFF771FF204602F088FC0020EB
:103A700070BD2DE9F34105462DB940F24D12D349F1
:103A8000C1A001F010FF00BFD148006818B128465E
:103A9000CF490968884700BF03F06AFC064600BFAB
:103AA00000BFA88B002806DDA88B401EA8833046E7
:103AB00003F062FC57E0019830B9304603F05CFC3B
:103AC0006FF00100BDE8FC8100BF03F051FC074628
:103AD00002F04DFF48B9BD49BEA001F008FE40F21A
:103AE0006D12BA49B7A001F0DEFE00BF03F040FC42
:103AF000804601F035FA48B1B449A9A001F0F7FDBC
:103B000040F26D12B149AFA001F0CDFE404603F086
:103B100033FC00BF384603F02FFC00BF02F027FF44
:103B200004460020206300BF00BF6A7A214605F1E9
:103B30001400FFF7D4FE019800280BDD00BF00BF82
:103B400001AA002104F14C0003F08BFA04F14C00AF
:103B500003F0CDF9304603F00FFC02F02FFD206B8F
:103B600008B1206BAEE700BFA848006818B128462E
:103B7000A6490968884700BF0020A3E710B504469E
:103B800000212046FFF775FF10BD70B5044600BF49
:103B90009F48006818B120469D490968884700BFC2
:103BA000002503F0E5FB064600BF00BF04F114004A
:103BB00001F090F928B904F1140001F09BF90125F6
:103BC00002E0A08B401CA083304603F0D5FB012D02
:103BD00001D102F0F3FC002070BD2DE9F041044654
:103BE0000E4615462CB94FF4F2728A4966A001F0D0
:103BF0005AFE012E10D12F4603F0BAFB804604F185
:103C00001400FFF7A2FEA783404603F0B5FB02F0C5
:103C1000D5FC0020BDE8F0814FF0FF30FAE770B529
:103C200004460D4616462CB940F20F227A497BA075
:103C300001F039FE2A460221204602F01CFB2046F4
:103C400001F050F90120A08300202062FF20A0771E
:103C50000020E077667270BD10B504462CB940F2C2
:103C60002E2273496DA001F01EFE04F11400FFF72F
:103C70006CFE204602F025FB002010BD2DE9F0412E
:103C800005460E4600BF03F073FB074601F068F9D6
:103C900048B1684942A001F02AFD40F24922654935
:103CA00048A001F000FE384603F066FB00BF29463D
:103CB000022002F022FB044614B92046BDE8F08140
:103CC000204601F00FF90120A08300202062FF2090
:103CD000A0770020E07766722046EFE770B50446D3
:103CE00000BF03F045FB054601F03AF948B15249DF
:103CF0002BA001F0FCFC40F26A224F4931A001F0F8
:103D0000D2FD284603F038FB00BF2CB94FF41B72DC
:103D1000494942A001F0C7FD04F11400FFF715FE68
:103D2000204602F02CFB002070BD2DE9F341044633
:103D300000BF03F01DFB074602F019FE48B93F49DA
:103D400024A001F0D4FC4FF422723C491DA001F0E4
:103D5000AAFD00BF03F00CFB804601F001F948B159
:103D600036490FA001F0C3FC4FF42272334915A06D
:103D700001F099FD404603F0FFFA00BF384603F01A
:103D8000FBFA5DE092D8000873656D20213D20525A
:103D9000545F4E554C4C00009ED80008ACD800082B
:103DA00046756E6374696F6E5B25735D2073686121
:103DB0006C6C206E6F74207573656420696E204989
:103DC00053520A0030000000BAD80008C8D80008D2
:103DD000D800002046756E6374696F6E5B25735D55
:103DE000207368616C6C206E6F742062652075733F
:103DF0006564206265666F726520736368656475CB
:103E00006C65722073746172740A0000DC0000201B
:103E1000E0000020D4D80008E3D800086D75746570
:103E20007820213D2052545F4E554C4C000000003C
:103E3000F1D8000801D9000811D9000821D90008DB
:103E400000BF34B940F28A22FE49AFF2300001F0DF
:103E50002AFD03F08DFA064602F089FD054600BFF3
:103E6000F948006818B12046F7490968884700BF3B
:103E700000BF00BF00202863206AA84203D1E07F72
:103E8000401CE07749E0A08B00280ADDA08B401E93
:103E9000A083256295F83500A077E07F401CE0778D
:103EA0003BE0019848B96FF001002863304603F009
:103EB00063FA6FF00100BDE8FC8100BF00BF95F818
:103EC0003500216A91F83510884205DA05F135028E
:103ED0000221206A02F0EAFE627A294604F1140007
:103EE000FFF7FDFC019800280BDD00BF00BF01AA11
:103EF000002105F14C0003F0B4F805F14C0002F08C
:103F0000F6FF304603F038FA02F058FB286B08B190
:103F1000286BD0E703F02CFA0646304603F02CFA63
:103F200000BFCA48006818B12046C84909688847D8
:103F300000BF0020BFE72DE9F0470446002600BF80
:103F400003F016FA804602F012FD58B9C049AFF2EC
:103F50007C1001F0CCFB40F20D32BD49AFF29C1059
:103F600001F0A1FC00BF03F003FA814600F0F8FF66
:103F700058B1B749AFF2D81001F0B9FB40F20D3299
:103F8000B349AFF2C01001F08EFC484603F0F4F9DB
:103F900000BF404603F0F0F900BF02F0E8FC054620
:103FA00003F0E6F9074600BF00BF00BFA94800685C
:103FB00018B12046A7490968884700BF206AA8426F
:103FC00009D04FF0FF302863384603F0D5F94FF0A1
:103FD000FF30BDE8F087E07F401EE077E07F08BB60
:103FE000A07F216A91F83510884205D004F11E02A5
:103FF0000221206A02F05AFE04F1140000F06AFF68
:1040000088B96069A0F1140500BF00BF256295F86A
:104010003500A077E07F401CE07704F1140000F049
:1040200069FF012606E0A08B401CA08300202062CF
:10403000FF20A077384603F09FF9012E01D102F04E
:10404000BDFA0020C5E703464FF0FF30704770B55A
:1040500004460D4616462CB940F27B327E497FA0BD
:1040600001F021FC2A460321204602F004F9667281
:10407000204600F037FF0020E06170BD10B5044617
:104080002CB940F297327A4974A001F00CFC04F18B
:104090001400FFF75AFC204602F013F9002010BD6F
:1040A0002DE9F04105460E4600BF03F061F90746D1
:1040B00000F056FF58B16F49AFF21C3001F017FB0A
:1040C0004FF46C726B49AFF2043001F0ECFB3846F0
:1040D00003F052F900BF2946032002F00EF904460E
:1040E00014B92046BDE8F0816672204600F0FAFE61
:1040F0000020E0612046F5E770B504462CB940F297
:10410000CE325D4955A001F0CEFB00BF03F030F97F
:10411000054600F025FF58B15749AFF27C3001F059
:10412000E6FA4FF474725449AFF2683001F0BBFB09
:10413000284603F021F900BF04F11400FFF705FC45
:10414000204602F01CF9002070BD2DE9F04704461E
:104150000F462CB940F2EF32484940A001F0A3FBD2
:104160001FB94FF0FF30BDE8F0874FF0000800BFE7
:104170003848006818B1204636490968884700BFAA
:1041800003F0F6F88246E0693843E06104F1140078
:1041900000F0A0FEC0BB666932E0A6F114054FF046
:1041A000FF3995F8400000F0010040B1E86BE1698B
:1041B0000840E96B884211D14FF000090EE095F8F4
:1041C000400000F0020048B1E86BE169084028B106
:1041D000E86BE1690840E8634FF000093668B9F11F
:1041E000000F0DD195F8400000F0040018B1E0690F
:1041F000E96B8843E061284602F0BCFB4FF0010800
:1042000004F114008642C8D1504603F0B5F8B8F165
:10421000010F01D102F0D2F90020A4E72DE9FF4FF0
:1042200081B005460E461746DDF8388000BF03F022
:104230009FF8009002F09BFB18B91149AFF26C4057
:1042400020E028E021D90008D8000020DC00002070
:104250002FD90008E000002040D900086576656E7F
:104260007420213D2052545F4E554C4C00000000FC
:104270004ED900085ED900086ED900087ED9000822
:104280008CD9000801F033FA40F24F42FC49AFF2FA
:10429000CC4001F008FB00BF03F06AF8834600F051
:1042A0005FFE58B1F649AFF2085001F020FA40F233
:1042B0004F42F349AFF2F44001F0F5FA584603F0EB
:1042C0005BF800BF009803F057F800BF35B940F223
:1042D0005242EB49AFF27C0001F0E5FA26B94FF00B
:1042E000FF3005B0BDE8F08F4FF0FF3902F03FFB23
:1042F00004460021216300BFE248006818B1284647
:10430000E0490968884700BF03F032F8824607F0A9
:10431000010030B1E8693040B04212D14FF00009DD
:104320000FE007F0020028B1E869304048B14FF0D3
:10433000000906E04FF48E62D149AFF2785001F0E7
:10434000B2FAB9F1000F0DD1B8F1000F03D0E8694E
:104350003040C8F8000007F0040088B3E869B043B3
:10436000E8612DE0049818B96FF00100206327E0A0
:10437000E66384F840706A7A214605F11400FFF77D
:10438000AEFA0498002809DD04AA002104F14C00CB
:1043900002F067FE04F14C0002F0A9FD504602F065
:1043A000EBFF02F00BF9206B08B1206B99E702F0EC
:1043B000DFFF8246B8F1000F02D0E06BC8F80000C2
:1043C000504602F0D9FF00BFAF48006818B1284638
:1043D000AD490968884700BF206B82E72DE9F041AD
:1043E00004460D46174634B94FF49862A749AFF218
:1043F000941001F058FA012D10D102F0B9FF0646D1
:1044000004F11400FFF7A1FA0020E061304602F049
:10441000B3FF02F0D3F80020BDE8F0814FF0FF3089
:10442000FAE72DE9F04104460D4616461F46DDF831
:1044300018802CB940F2ED42954996A001F033FA6C
:104440002A460421204601F016FF84F80980204600
:1044500000F048FDE661278400206084A084E084A9
:1044600004F1280000F033FD0020BDE8F08110B514
:1044700004462CB94FF4A2628A4986A001F013FACF
:1044800004F11400FFF761FA04F12800FFF75DFA68
:10449000204601F016FF002010BD2DE9F041054631
:1044A0000E46174600BF02F063FF804600F058FD3D
:1044B00058B17D49AFF2187001F019F940F22C5251
:1044C0007949AFF2007001F0EEF9404602F054FF76
:1044D00000BF2946042001F010FF044614B920460D
:1044E000BDE8F0816772204600F0FCFC2684218C38
:1044F000880001F01DFBE061E06920B9204601F071
:104500003EFF0020ECE700206084A084E08404F1FA
:10451000280000F0DCFC2046E2E770B5044600BF4E
:1045200002F026FF054600F01BFD58B15F49AFF2CF
:10453000907001F0DCF840F257525C49AFF27C70A9
:1045400001F0B1F9284602F017FF00BF2CB940F284
:104550005A5256494FA001F0A6F904F11400FFF792
:10456000F4F904F12800FFF7F0F9E06901F0E4FB49
:10457000204601F004FF002070BD2DE9F74F0446EE
:104580000F462CB940F28752494942A001F08BF9FD
:10459000002602F0ECF9054600BF4648006818B155
:1045A000204644490968884700BF02F0E1FE804682
:1045B000608C218C884208D1029830B9404602F0C4
:1045C000DBFE6FF00200BDE8FE8F86E0002028636E
:1045D000029828B9404602F0CFFE6FF00200F2E7E1
:1045E00000BF02F0C5FE814602F0C1F958B930495A
:1045F000AFF6200001F07BF840F2AA522C49AFF64A
:104600003C0001F050F900BF02F0B2FE824600F01B
:10461000A7FC58B12649AFF6780001F068F840F2DF
:10462000AA522349AFF6640001F03DF9504602F06A
:10463000A3FE00BF484602F09FFE00BF627A2946F3
:1046400004F12800FFF74BF9029800280EDDFEF771
:1046500078FE064600BF00BF02AA002105F14C000B
:1046600002F0FFFC05F14C0002F041FC404602F074
:1046700083FE01F0A3FF286BF0B1286BA3E70000D5
:104680008CD90008D8000020DC0000209AD900084E
:10469000ABD900086D6220213D2052545F4E554C2D
:1046A0004C000000B6D90008C3D90008D0D90008D2
:1046B000DDD90008E000002002F05AFE8046029892
:1046C00000280ADDFEF73DFE861B0298801B029043
:1046D0000298002801DA00200290608C218C884228
:1046E0003FF474AFA18CE06940F82170A08C401CAD
:1046F000A084A08C218C884201DB0020A084608CE7
:10470000401C608404F1140000F0E4FB50B904F193
:10471000140000F0EFFB404602F02EFE01F04EFFC9
:10472000002050E7404602F027FE00204BE770B51E
:1047300004460D46002229462046FFF71EFF70BDA5
:104740002DE9F74F04460F4634B94FF4C362FA49D6
:10475000AFF2C00001F0A7F8002602F008F9054604
:1047600000BFF648006818B12046F4490968884738
:1047700000BF02F0FDFD8046608C40B9029830B960
:10478000404602F0F9FD6FF00100BDE8FE8F6AE0DF
:1047900000202863029830B9404602F0EDFD6FF02A
:1047A00001002863F1E700BF02F0E2FD814602F05C
:1047B000DEF858B9E049AFF6E41000F098FF40F297
:1047C0003D62DD49AFF6042001F06DF800BF02F054
:1047D000CFFD824600F0C4FB58B1D749AFF6402068
:1047E00000F085FF40F23D62D349AFF6282001F08A
:1047F0005AF8504602F0C0FD00BF484602F0BCFD2A
:1048000000BF627A294604F11400FFF768F80298A5
:1048100000280EDDFEF795FD064600BF00BF02AA88
:10482000002105F14C0002F01CFC05F14C0002F0E7
:104830005EFB404602F0A0FD01F0C0FE286B08B10F
:10484000286BA2E702F094FD8046029800280ADD5A
:10485000FEF777FD861B0298801B029002980028C5
:1048600001DA00200290608C002891D0E18CE06990
:1048700050F821003860E08C401CE084E08C218CF2
:10488000884201DB0020E084608C401E608404F1DB
:10489000280000F01FFB98B904F1280000F02AFB63
:1048A000404602F069FD00BFA548006818B12046E7
:1048B000A3490968884700BF01F080FE002064E733
:1048C000404602F059FD00BF9D48006818B12046DF
:1048D0009B490968884700BF002056E72DE9F04151
:1048E00004460D46174634B940F29B629549AFF233
:1048F0005C2000F0D8FF012D16D102F039FD0646EC
:1049000004F11400FFF721F804F12800FFF71DF867
:1049100000206084A084E084304602F02DFD01F088
:104920004DFE0020BDE8F0814FF0FF30FAE72DE9A1
:10493000F05F04460F4690469946DDE90AAB2CB974
:1049400040F2D762804981A000F0ADFF3A460521D0
:10495000204601F090FC84F809B0204600F0C2FA2D
:10496000C4F81C8009F1030020F003002084208C8F
:10497000001DBAFBF0F060840020A062E0622063BA
:10498000002508E0208C001DE16905FB0016206B66
:10499000306026636D1C608CA842F3DC0020A0848C
:1049A000BDE8F09F10B504462CB94FF4E1626B49A5
:1049B00066A000F078FF04F11400FEF7C6FF204661
:1049C00001F07FFC002010BD70B5044600BF02F06E
:1049D000CFFC054600F0C4FA58B16149AFF640403B
:1049E00000F085FE40F262725D49AFF6284000F0AB
:1049F0005AFF284602F0C0FC00BF2CB940F2657295
:104A0000574952A000F04FFF04F11400FEF79DFF3C
:104A1000E06901F091F9204601F0B1FC002070BD81
:104A20002DE9F05F0746884691469A4600BF02F09E
:104A30009FFC834600F094FA58B14A49AFF6A04073
:104A400000F055FE4FF4E5624649AFF6884000F0AD
:104A50002AFF584602F090FC00BF3946052001F0BD
:104A60004CFC044614B92046BDE8F09F84F809A028
:104A7000204600F037FA08F1030020F003002084FC
:104A8000A4F82290218C091D628C01FB02F001F038
:104A90004FF8E061E06920B92046FFF795FF00205C
:104AA000E2E70020A062E0622063002508E0208C9D
:104AB000001DE16905FB0016206B306026636D1C4C
:104AC000608CA842F3DC0020A0842046CCE72DE9CE
:104AD000F04104460F4616462CB940F28B7222492B
:104AE0001AA000F0E0FE2FB940F28C721E491FA000
:104AF00000F0D9FE2EB940F28D721B4920A000F0C3
:104B0000D2FE208CB04203D24FF0FF30BDE8F081DE
:104B100000BF1E48006818B120461C490968884734
:104B200000BF02F025FC8046256B8DBB404602F09D
:104B300023FC6FF00200E9E7EDD90008D80000205F
:104B4000DC000020F8D9000806DA00086D71202189
:104B50003D2052545F4E554C4C00000011DA0008C5
:104B60002BDA00081EDA000838DA0008627566667B
:104B7000657220213D2052545F4E554C4C00000080
:104B800073697A6520213D2030000000E00000209C
:104B9000FFE728682063404602F0EEFB0020286013
:104BA00032463946281D00F036FA02F0E1FB804615
:104BB000E06A08B1E06A0560E562A06A00B9A56232
:104BC000A08C401CA08404F1140000F083F950B9BB
:104BD00004F1140000F08EF9404602F0CDFB01F024
:104BE000EDFC002092E7404602F0C6FB00208DE776
:104BF0002DE9F04104460F46164634B940F2E372FF
:104C0000C249AFF2B80000F04EFE37B940F2E4728C
:104C1000BE49AFF2A80000F046FE36B940F2E57298
:104C2000BA49AFF2A40000F03EFE208CB04203D29D
:104C30004FF0FF30BDE8F08100BFB548006818B103
:104C40002046B3490968884700BF02F091FB8046BF
:104C5000256B2DB9404602F08FFB6FF00200E9E7AB
:104C600028682063404602F087FB32463946281DFB
:104C700000F0D1F902F07CFB8046A06A2860A562B2
:104C8000E06A00B9E562A08C401CA08404F1140025
:104C900000F020F950B904F1140000F02BF940465F
:104CA00002F06AFB01F08AFC0020C3E7404602F0F4
:104CB00063FB0020BEE72DE9FF4F81B004460F469D
:104CC000904634B940F63B029249AFF2801000F0B2
:104CD000EAFD37B940F63C028E49AFF2701000F0A1
:104CE000E2FDB8F1000F06D140F63D028949AFF26E
:104CF000701000F0D8FD4FF0000901F038FE0546B5
:104D000000BF8548006818B1204683490968884774
:104D100000BF02F02DFB8246A08C48B9049838B938
:104D2000504602F029FB6FF0010005B0BDE8F08F9E
:104D30006CE000BF02F01CFB009001F018FE58B9B7
:104D40007449AFF6707000F0D2FC40F6530271491E
:104D5000AFF2CC1000F0A7FD00BF02F009FB8346C4
:104D600000F0FEF858B16B49AFF6CC7000F0BFFC14
:104D700040F653026749AFF2F01000F094FD584638
:104D800002F0FAFA00BF009802F0F6FA00BF002025
:104D90002863049830B9504602F0EEFA6FF0010033
:104DA0002863C2E7627A294604F11400FEF797FDF2
:104DB000049800280EDDFEF7C4FA814600BF00BF4C
:104DC00004AA002105F14C0002F04BF905F14C005A
:104DD00002F08DF8504602F0CFFA01F0EFFB286B9D
:104DE00008B1286BA1E702F0C3FA824604980028B4
:104DF0000CDDFEF7A6FAA0EB09090498A0EB090068
:104E000004900498002801DA00200490A08C002867
:104E10008FD0A66A3068A062E06AB04201D100205B
:104E2000E062A08C401EA084504602F0A5FA208CBF
:104E3000404501D2208C00E040460246311D3846F4
:104E400000F0E9F802F094FA8246206B30602663A5
:104E5000504602F091FA00BF3048006818B1204671
:104E60002E490968884700BF00205EE72DE9F04120
:104E700004460E46904634B940F6C1022849AFF2C6
:104E8000343000F010FD012E1ED102F071FA0746F9
:104E900004F11400FEF759FD0AE0A56A2868A06233
:104EA000E06AA84201D10020E062206B28602563FF
:104EB000A06A0028F1D1A084384602F05DFA01F022
:104EC0007DFB0020BDE8F0814FF0FF30FAE7406045
:104ED0000060704701460868884201D10120704790
:104EE0000020FCE710B5044604F11400FFF7EFFFC3
:104EF000002010BD70B504462068A0F1140500BF65
:104F000000BF284601F036FD002070BD43DA0008DE
:104F1000E000002050DA0008D8000020DC0000206B
:104F20005BDA000810B500BF00BF02F021FA0446AA
:104F30000D480078401C0C490870204602F01CFA0D
:104F400010BD10B500BF00BF02F012FA04460648BB
:104F50000078401E04490870204602F00DFA10BD8A
:104F600001480078704700001000002010B5FFF7DE
:104F7000F7FF10B1FA48006810BD01F0F8FC0446D4
:104F800014B9F7480068F7E7206BF5E770B50446F9
:104F9000FFF7E6FF10B1F248046070BD01F0E7FCD6
:104FA000054615B9EE480460F7E72C6300BFF4E747
:104FB00010B5FFF7D5FF08B1E94810BD01F0D7FCE7
:104FC000044614B104F13000F7E7E548F5E7F0B521
:104FD0000C460546E6B2042A15D300F0030797B93C
:104FE000014646EA062343EA034304E008C108C138
:104FF00008C108C1103A102AF8D201E008C1121FF6
:10500000042AFBD20D4601E005F8016B171EA2F140
:105010000102F9D1F0BD2DE9F0410F4616460446D4
:105020003D463346102B28D305F0030C04F003084B
:105030004CEA080CBCF1000F1FD121462A4610E0B3
:1050400052F804CB41F804CB52F804CB41F804CB1E
:1050500052F804CB41F804CB52F804CB41F804CB0E
:10506000103B102BECD204E052F804CB41F804CBF7
:105070001B1F042BF8D20C46154603E015F801CB94
:1050800004F801CBB3F1000CA3F10103F6D1BDE8A4
:10509000F08170B50C46014623468B4210D29D1814
:1050A0008D420DD91144134405E05D1E2B462E7828
:1050B0004D1E29462E70151EA2F10102F5D108E001
:1050C00003E013F8015B01F8015B151EA2F1010278
:1050D000F7D170BDF0B5034600201C460D4608E030
:1050E00026782F78F61B301E00D004E0641C6D1C5F
:1050F000521E002AF4D800BFF0BD01460A4600E067
:10510000521C10780028FBD1501A7047F0B50646A3
:105110000F463846FFF7F1FF05460DB93046F0BDA2
:105120003046FFF7EAFF044609E0641E2A46394686
:105130003046FFF7CFFF08B93046F0E7761CAC42A7
:10514000F3DA0020EBE730B503460C4600BF13F856
:10515000011B14F8012B412902DB5A2900DC203104
:10516000412A02DB5A2A00DC2032914201D1002977
:10517000EDD1881A30BD70B50346A2B118460C4671
:1051800000BF14F8016B00F8016B3EB902E0002586
:1051900000F8015B551E2A1EF9D102E0551E2A1E99
:1051A000EFD100BF00BF184670BD30B503460020E8
:1051B0000BE011F8015B1C78641B64B2201E02D165
:1051C00013F8015B05B902E0521E002AF1D100BFBD
:1051D00030BD024601E0521C491C107818B110780D
:1051E0000B789842F7D010780B78C01A704770B5DA
:1051F00004462046FFF781FF451C284600F098FC36
:1052000006460EB9002070BD2A4621463046FFF7FB
:1052100002FF3046F7E770472DE9F04F85B00D46A5
:105220009C46DDE90F740E9B04F04008B8F1000FB6
:1052300002D0DFF8308101E0DFF82C81CDF800806A
:1052400004F01008B8F1000F01D024F0010404F0BC
:105250000108B8F1000F02D04FF0300801E04FF024
:105260002008C246002604F00208B8F1000F11D051
:10527000002A02DA2D2652420CE004F00408B8F1AC
:10528000000F01D02B2605E004F00808B8F1000F4C
:1052900000D02026002142B94FF0300B8846491C2F
:1052A0000DF1040909F808B01DE01AE0E146B9F172
:1052B0000A0F08D14FF00A0BB2FBFBFE0BFB1E28B6
:1052C000B2FBFBF202E002F00F08120900BFDDF8AA
:1052D000009019F808B08846491C0DF1040909F836
:1052E00008B0002AE2D1B94200DD0F46DB1B04F012
:1052F0001108B8F1000F10D116B1002B00DD5B1EB4
:1053000006E0A84203D84FF0200880F80080401C37
:10531000B3F10008A3F10103F3DC26B1A84201D8E0
:1053200006705B1E401C04F01008B8F1000F0AD193
:1053300004E0A84201D880F800A0401CB3F10008A6
:10534000A3F10103F5DC06E0A84203D84FF03008D2
:1053500080F80080401CB8467F1E8845F4DC0EE0D3
:10536000140000207ADB000869DB0008A84205D899
:105370000DF1040818F8018080F80080401CB1F19C
:105380000008A1F10101F1DC06E0A84203D84FF0CA
:10539000200880F80080401CB3F10008A3F101034D
:1053A000F3DC05B0BDE8F08F0146002009E00B6892
:1053B0005A1C0A601A7800EB800302EB4302A2F148
:1053C00030000A681278303A0A2AF0D370472DE983
:1053D000FF4F89B0804644460A984044461E4645E1
:1053E00004D24FF0FF36A6EB08000A906FE10B984D
:1053F0000078252806D0B44202D80B980078207097
:10540000641C61E1002526E00B98401C0B900B9872
:1054100000782D2802D145F010051CE00B9800788B
:105420002B2802D145F0040515E00B9800782028C0
:1054300002D145F008050EE00B980078232802D130
:1054400045F0200507E00B980078302802D145F0A0
:10545000010500E000E0D7E700BF4FF0FF370B98F1
:10546000007830380A2804D20BA8FFF79DFF0746C2
:105470000EE00B9800782A280AD10B98401C0B905C
:105480000C9880C80C90002F02DA7F4245F010057E
:105490004FF0FF390B9800782E281CD10B98401C38
:1054A0000B900B98007830380A2804D20BA8FFF72D
:1054B0007BFF81460AE00B9800782A2806D10B98DA
:1054C000401C0B900C9850F8049B0C90B9F1000F05
:1054D00001DA4FF00009002004900B98007868284A
:1054E00003D00B9800786C2805D10B9800780490B5
:1054F0000B98401C0B900A2005900B9800786F28A1
:1055000075D00CDC632813D004DC252870D0582813
:105510006FD18DE064286DD06928F9D18FE07028B3
:105520006AD0732825D0752878D07828F0D182E009
:1055300005F0100040B904E0B44201D820202070EA
:10554000641C781E071EF7DC0C9810F8041B0C90E6
:10555000C8B20790B44201D807982070641C04E0D8
:10556000B44201D820202070641C781E071EF7DC8E
:10557000AAE00C98006806900C98001D0C90069804
:1055800008B9D7A006900698FFF7B7FD8346B9F192
:10559000000F02DDCB4500DDCB4605F0100048B919
:1055A00004E0B44201D820202070641C38467F1EDD
:1055B0005845F6DC002008900BE0B44202D806986B
:1055C00000782070641C0698401C06900898401CC7
:1055D000089008985845F0DB04E0B44201D8202038
:1055E0002070641C38467F1E5845F6DC6CE01CE0D9
:1055F00015E028E022E0FFE7781C10B9082745F005
:105600000105CDE9007902950C9804C810233146B4
:105610000C902046FFF700FE044655E012E0B4422D
:1056200001D825202070641C4EE0082005901DE064
:1056300045F0400500BF1020059017E000BF45F081
:10564000020500BF12E0B44201D825202070641C7E
:105650000B98007830B1B44202D80B9800782070D3
:10566000641C02E00B98401E0B902DE000BF0498D4
:105670006C2807D10C9850F804AB0C9005F0020090
:10568000B8B116E0049868280BD10C9830F8041BC8
:105690001FFA81FA0C9005F0020050B10FFA8AFA55
:1056A00007E00C9850F804AB0C9005F0020000B134
:1056B00000BFCDE900790295524631462046059B50
:1056C000FFF7AAFD044600BF0B98401C0B900B98F7
:1056D000007800287FF48BAEB44201D8207001E03E
:1056E00000203070A4EB08000DB0BDE8F08F0FB4BF
:1056F00038B505A800907F217B48009B049AFFF7EE
:1057000066FE04467F2C00D97F247848006818B9CB
:105710007548FFF780FD15E074480068058B7348F5
:105720000068008B40F040007049096808832346F8
:105730006D4A00216D480068FDF799FF6B480068CD
:10574000058300BF0020009038BC5DF814FB08B54D
:1057500067A0FFF7CCFF69A0FFF7C9FF70A0002387
:1057600001220221009071A0FFF7C1FF77A0FFF78F
:10577000BEFF08BD0FB4F8B504460D4609A8009059
:1057800029462046009B089AFFF721FE0646002086
:1057900000903046F8BC5DF814FB37B505460C4662
:1057A00022464FF0FF312846029BFFF710FE3EBD18
:1057B0000FB438B5044606A800902046009A059913
:1057C000FFF7EBFF054600200090284638BC5DF847
:1057D00014FB46480068704770B5054643480668A4
:1057E0002846FDF749FE044664B14048006818B1F8
:1057F0003E480068FDF7F3FE43212046FDF7ABFE6F
:105800003A480460304670BD2DE9F04107460C4629
:10581000E01C20F00304F81C20F0030000EB040857
:10582000404600F085F9054665B1601E284008B97C
:105830002E1904E0601E2844611E20EA010646F885
:10584000045C35462846BDE8F08170B5044654F83E
:10585000045C284600F070FA70BD014609B90020CA
:105860007047C8B220B1C8B2434A105C401CF7E789
:1058700001F47F4028B14048C1F30722805C093021
:10588000EEE701F47F0028B13B48C1F30742805C9A
:105890001130E5E7384800EB116000781930DFE798
:1058A000364908607047F8B504460D461646002094
:1058B00000903248006858B933462A46214630A045
:1058C000FFF715FF00BF9DF800000028FBD005E0A2
:1058D000324629462046294B1B689847F8BD0000F0
:1058E000284E554C4C290000E007002018000020ED
:1058F0000A205C207C202F0A000000002D2052543A
:10590000202D2020202020546872656164204F7073
:1059100065726174696E672053797374656D0A00EE
:105920004A756C203134203230313600202F207CF3
:10593000205C202020202025642E25642E25642034
:105940006275696C642025730A00000020323030D3
:1059500036202D203230313620436F7079726967DE
:1059600068742062792072742D7468726561642095
:105970007465616D0A00000069DA00081C000020EF
:105980002825732920617373657274696F6E2066B0
:1059900061696C65642061742066756E6374696FFB
:1059A0006E3A25732C206C696E65206E756D62658C
:1059B000723A2564200A0000F04908607047F049F7
:1059C0000860704770B50446EE480068844204D20F
:1059D0008D22ED49EDA0FFF766FFF4480068844290
:1059E00004D38E22E849F2A0FFF75DFF608820B162
:1059F0008F22E549F9A0FFF756FFE2496068096880
:105A00004518AC4215D0688898B9E84800688542C6
:105A10000FD0F6480068A84201D1F44804606868D5
:105A20006060D8480068201AD64A69681268114434
:105A30008860D449A06809684618A64211D07088C9
:105A400078B9EA480068A04201D1E8480660606879
:105A50007060CC480068301ACA4A61681268114404
:105A6000886070BD2DE9F04705460E46E81C20F021
:105A7000030726F0030800BF01F07AFC8146FFF718
:105A80006FFA40B1DA49DBA0FFF731FEBE22D849F8
:105A9000E1A0FFF708FF484601F06EFC00BFB8F137
:105AA000180F09D9A8F11800B84205D3A8EB0700D0
:105AB0001838DA49086006E032462946D8A0FFF7D0
:105AC00016FEBDE8F087AF48076000BF00BF04685E
:105AD0004FF4F5502080D14800680C306060002001
